:020000040000FA
:100000000C9461000C9473000C9473000C947300B6
:100010000C9473000C9473000C9473000C94730094
:100020000C9473000C9473000C9473000C94730084
:100030000C9473000C9473000C9473000C94730074
:100040000C9468040C9473000C9473000C9473006B
:100050000C9473000C9473000C9473000C94730054
:100060000C9473000C94730000000000240027001F
:100070002A0000000000250028002B0000000000DE
:1000800023002600290004040404040404040202DA
:100090000202020203030303030301020408102007
:1000A0004080010204081020010204081020000012
:1000B0000008000201000003040700000000000027
:1000C000000011241FBECFEFD8E0DEBFCDBF21E07E
:1000D000A0E0B1E001C01D92A633B207E1F70E9493
:1000E000B2040C9499080C940000833081F028F439
:1000F000813099F08230A9F008958730A9F08830D6
:10010000C9F08430B1F4809180008F7D03C080916C
:1001100080008F7780938000089584B58F7784BDA9
:10012000089584B58F7DFBCF8091B0008F77809349
:10013000B00008958091B0008F7DF9CFCF93DF9309
:10014000282F30E0F901E255FF4F8491F901E6567E
:10015000FF4FD491F901EA57FF4FC491CC23A1F08E
:1001600081110E947500EC2FF0E0EE0FFF1FE458A4
:10017000FF4FA591B491EC91ED2381E090E009F45B
:1001800080E0DF91CF91089580E090E0FACF81E0A8
:100190002091300130913101232B79F480E10E94CC
:1001A0009E00909335018093340181E10E949E006E
:1001B000909333018093320180E02DED30E0309355
:1001C0003101209330018111E9CF81E090E0089561
:1001D0001F93CF93DF93282F30E0F901E255FF4FB3
:1001E0008491F901E656FF4FD491F901EA57FF4F88
:1001F000C491CC23A9F0162F81110E947500EC2F19
:10020000F0E0EE0FFF1FEE58FF4FA591B4918FB7AE
:10021000F894EC91111108C0D095DE23DC938FBFC8
:10022000DF91CF911F910895DE2BF8CFCF93DF930D
:1002300090E0FC01E656FF4F24918A579F4FFC0146
:1002400084918823C9F090E0880F991FFC01E85938
:10025000FF4FA591B491FC01EE58FF4FC591D49189
:1002600061110DC09FB7F8948C91209582238C93D7
:100270008881282328839FBFDF91CF910895623022
:1002800051F49FB7F8943C91822F809583238C93EF
:10029000E8812E2BEFCF8FB7F894EC912E2B2C9377
:1002A0008FBFEACF1F93CF93DF93182FEB0161E04D
:1002B0000E941601209739F460E0812FDF91CF91E1
:1002C0001F910C94E800CF3FD10511F461E0F5CF08
:1002D000E12FF0E0E255FF4FE491E33031F140F4DB
:1002E000E130B1F0E230E1F0C038D1057CF7E4CF85
:1002F000E73029F1E83059F1E430B1F7809180001E
:10030000806280938000D0938B00C0938A0004C0E9
:1003100084B5806884BDC7BDDF91CF911F910895DA
:1003200084B5806284BDC8BDF7CF809180008068AD
:1003300080938000D0938900C0938800EDCF809196
:10034000B00080688093B000C093B300E5CF809187
:10035000B00080628093B000C093B400DDCF8E50B7
:10036000806480937C0080917A00806480937A001E
:1003700080917A0086FDFCCF809178009091790081
:1003800008953FB7F8948091050190910601A091DE
:100390000701B091080126B5A89B05C02F3F19F0B1
:1003A0000196A11DB11D3FBFBA2FA92F982F8827F5
:1003B000BC01CD01620F711D811D911D42E0660FD0
:1003C000771F881F991F4A95D1F708958F929F92A2
:1003D000AF92BF92CF92DF92EF92FF924B015C01FE
:1003E0000E94C1016B017C010E94C1016C197D0951
:1003F0008E099F09683E734081059105A8F321E0AD
:10040000821A9108A108B10888EEC80E83E0D81EB0
:10041000E11CF11C81149104A104B10429F7FF909F
:10042000EF90DF90CF90BF90AF909F908F90089506
:100430002FB7F8946091010170910201809103013E
:10044000909104012FBF089580E10E949E00909337
:1004500035018093340181E10E949E009093330125
:10046000809332010895CF93DF938DE00E949E0028
:1004700031E020E0019709F030E0C32FD22F8CE06B
:100480000E949E00019709F4C2608BE00E949E00CA
:10049000019709F4C4608AE00E949E00019709F464
:1004A000C860CE01DF91CF9108950F931F93E09123
:1004B0002301F0912401309709F0099410922D0145
:1004C0000E943302039779F50E9418026093290174
:1004D00070932A0180932B0190932C018EE692E079
:1004E00090932401809323010E9418020091290116
:1004F00010912A0120912B0130912C01601B710B6E
:10050000820B930B693B7B408105910578F181E07B
:1005100080932D01109224011092230183E090E03A
:100520001F910F9108950E94180260932501709306
:10053000260180932701909328018DE992E0909302
:100540002401809323010E9418020091250110913B
:1005500026012091270130912801601B710B820B2D
:10056000930B6D3D75408105910588F690E080E024
:10057000D7CF81302FEF9207D4F060E0009781F061
:10058000BC018F3F910519F014F06FEF70E097FFF9
:1005900011C071956195710983E00E94520161E07B
:1005A00085E00E94E80060E084E00C94E80061E0EF
:1005B0007FEFEFCF83E00E94520160E085E00E9470
:1005C000E80061E0F1CF81302FEF9207D4F060E0D6
:1005D000009781F0BC018F3F910519F014F06FEF87
:1005E00070E097FF11C071956195710989E00E94D3
:1005F000520161E087E00E94E80060E088E00C942E
:10060000E80061E07FEFEFCF89E00E94520160E0F7
:1006100087E00E94E80061E0F1CF81E020912E01A7
:1006200030912F01232BA9F4809134019091350151
:100630000097D1F48091320190913301019719F51F
:100640008AE090E00E94E3028AE69FEF0E94B902EE
:1006500080E029E233E030932F0120932E018111B5
:10066000E3CF81E090E00895019769F48091320131
:1006700090913301892B39F48AE69FEF0E94E302BF
:100680008AE090E0E3CF90E080E00E94E30290E017
:1006900080E0DCCFCF93C1E08091210190912201D5
:1006A000892BB9F4209134013091350180913201C8
:1006B0009091330121303105C1F48130910519F554
:1006C00086EE90E00E94E30286EE90E00E94B9027E
:1006D000C0E089E693E09093220180932101C1114B
:1006E000E1CF81E090E0CF910895C0E0232B89F71E
:1006F000019779F788EC90E00E94E30286E490E0AD
:100700000E94B902E6CFC0E0892B19F786E490E099
:100710000E94E30288EC90E0F3CF81E020911F017A
:1007200030912001232B91F4809134019091350177
:1007300081309105B1F48091320190913301813083
:10074000910501F581E080932D0180E026EA33E0F8
:100750003093200120931F018111E6CF81E090E0CA
:100760000895892BC1F48091320190913301019752
:1007700091F486E990E00E94E30288E290E00E9412
:10078000B902E3CF892B39F488E290E00E94E302BA
:1007900086E990E0F4CF10922D01D7CF0F931F93ED
:1007A000E0911901F0911A01309709F009948EE057
:1007B0000E949E00019781F584E690E00E94E3028A
:1007C00084E690E00E94B9020E94180260931B0127
:1007D00070931C0180931D0190931E018EEE93E097
:1007E00090931A01809319010E94180200911B0135
:1007F00010911C0120911D0130911E01601B710B95
:10080000820B930B613971408105910590F490E062
:1008100080E01F910F9108958FE00E949E00019744
:1008200059F28EE00E949E00019719F08FE00E941D
:100830009E0010921A011092190183E090E0E9CF16
:1008400080E294E090931A01809319010E941802AB
:10085000D9CF0F931F938091130190911401892B8D
:1008600091F488E39FEF0E94E30280EB9FEF0E94E8
:10087000B9020E94180260931501709316018093CB
:1008800017019093180183E494E0909314018093EE
:1008900013010E9418020091150110911601209178
:1008A000170130911801601B710B820B930B653F90
:1008B00071408105910548F01092140110921301C6
:1008C00083E090E01F910F91089590E080E0FACFCF
:1008D0001F920F920FB60F9211242F933F938F9375
:1008E0009F93AF93BF938091010190910201A091DA
:1008F0000301B09104013091000123E0230F2D3753
:1009000058F50196A11DB11D2093000180930101AE
:1009100090930201A0930301B0930401809105011B
:1009200090910601A0910701B09108010196A11DC7
:10093000B11D8093050190930601A0930701B09328
:100940000801BF91AF919F918F913F912F910F908F
:100950000FBE0F901F90189526E8230F0296A11D39
:10096000B11DD2CF789484B5826084BD84B5816096
:1009700084BD85B5826085BD85B5816085BD80916A
:100980006E00816080936E001092810080918100E2
:1009900082608093810080918100816080938100DA
:1009A000809180008160809380008091B10084609C
:1009B0008093B1008091B00081608093B0008091FD
:1009C0007A00846080937A0080917A0082608093BC
:1009D0007A0080917A00816080937A0080917A0019
:1009E000806880937A001092C10061E086E00E94E6
:1009F000160161E083E00E94160161E085E00E943B
:100A0000160161E084E00E94160161E089E00E9425
:100A1000160161E087E00E94160161E088E00E9413
:100A2000160162E08AE00E94160162E08BE00E94FB
:100A3000160162E08CE00E94160162E08DE00E94E7
:100A4000160160E08EE00E94160160E08FE00E94D7
:100A5000160160E081E10E94160160E080E10E94E1
:100A6000160160E082E00E94160160E086E00E94CC
:100A7000E80090E080E00E94E30290E080E00E94C5
:100A8000B902109231011092300110922F01109290
:100A90002E011092200110921F0110922401109239
:100AA0002301109222011092210110921A0110923A
:100AB00019010E943302019709F0B4C061E086E099
:100AC0000E94E80068EE73E080E090E00E94E6019A
:100AD00060E086E00E94E80082E00E949E000197AC
:100AE000D9F7CBE2D2E00E942402809134019091A8
:100AF00035010197B1F086E990E00E94E30286E9B2
:100B000090E00E94B90282E00E949E00892B59F772
:100B100090E080E00E94E30290E080E00E94B90251
:100B2000FFCF8091320190913301019721F70E940C
:100B3000240220913401309135018091320190914D
:100B400033012130310509F055C0019741F486EE9B
:100B500090E00E94E30286EE90E00E94B90280914C
:100B6000320190913301892BB1F58091340190913C
:100B70003501019781F586E990E00E94E30288EC57
:100B800090E00E94B90290E080E00E94E30284EBD2
:100B900090E00E94B90268EC70E080E090E00E9472
:100BA000E601D0930A01C09309018EE00E94AF01D3
:100BB0008337924084F58CE99FEF0E94E3028CE931
:100BC0009FEF0E94B90260E971E080E090E00E942E
:100BD000E6010E9424028091340190913501892B15
:100BE00009F0A5CF8091320190913301892B09F052
:100BF0009ECF81CF232B09F0B2CF019709F0AFCF61
:100C000088EC90E00E94E30286E990E00E94B9023D
:100C10000E942402A4CF8FE00E94AF01833792404C
:100C200054F2D7CF0E9433020297B9F561E086E013
:100C30000E94E80068EE73E080E090E00E94E60128
:100C400060E086E00E94E80068EE73E080E090E0FB
:100C50000E94E60161E086E00E94E80068EE73E031
:100C600080E090E00E94E60160E086E00E94E800FB
:100C70000E94C70080912D018111FACF0E940D03BF
:100C80000E94550280912D01882391F30E944A030E
:100C90000E9455020E94CE03EBCF0E9433020397BD
:100CA00009F07FC061E086E00E94E80068EE73E032
:100CB00080E090E00E94E60160E086E00E94E800AB
:100CC00068EE73E080E090E00E94E60161E086E07B
:100CD0000E94E80068EE73E080E090E00E94E60188
:100CE00060E086E00E94E80068EE73E080E090E05B
:100CF0000E94E60161E086E00E94E80068EE73E091
:100D000080E090E00E94E60160E086E00E94E8005A
:100D100082E00E949E000197D9F70E94C70080914F
:100D20002D01811134C00E940D030E9455028EE0F6
:100D30000E94AF01833792406CF58AE69FEF0E94D4
:100D4000E3028AE69FEF0E94B90268E572E080E064
:100D500090E00E94E6018CE99FEF0E94E30286EF9B
:100D60009FEF0E94B90260E971E080E090E00E948C
:100D7000E60182E00E949E00892B79F690E080E0F7
:100D80000E94E30290E080E00E94B902FFCF0E943F
:100D90004A03CDCF8FE00E94AF01833792406CF2BF
:100DA000E8CF0E94330261E0049709F0BEC086E0FC
:100DB0000E94E80068EE73E080E090E00E94E601A7
:100DC00060E086E00E94E80068EE73E080E090E07A
:100DD0000E94E60161E086E00E94E80068EE73E0B0
:100DE00080E090E00E94E60160E086E00E94E8007A
:100DF00068EE73E080E090E00E94E60161E086E04A
:100E00000E94E80068EE73E080E090E00E94E60156
:100E100060E086E00E94E80068EE73E080E090E029
:100E20000E94E60161E086E00E94E80068EE73E05F
:100E300080E090E00E94E60160E086E00E94E80029
:100E400082E00E949E000197D9F70E94C70080911E
:100E50002D01811140C086E490E00E94E3028AEAFD
:100E600090E00E94B9020E948D030E9455028EE01C
:100E70000E949E00019791F58FE00E949E000197CD
:100E800069F58AE69FEF0E94E3028AE69FEF0E94DF
:100E9000B90268E572E080E090E00E94E6018CE92A
:100EA0009FEF0E94E30286EF9FEF0E94B90260E984
:100EB00071E080E090E00E94E60182E00E949E00E6
:100EC000892B19F690E080E00E94E30290E080E038
:100ED0000E94B902FFCF0E944A03C9CF8EE00E9450
:100EE000AF01833792409CF08FE00E94AF018237C0
:100EF00092406CF48EE00E94AF018237924074F011
:100F000084E690E00E94E3028CE99FEFCECF8CE96B
:100F10009FEF0E94E30284E690E0C7CF8FE00E943B
:100F2000AF018337924064F3C8CF86E00E94E800A7
:100F300068EE73E080E090E00E94E60160E086E009
:100F40000E94E80068EE73E080E090E00E94E60115
:100F500061E086E00E94E80068EE73E080E090E0E7
:100F60000E94E60160E086E00E94E80068EE73E01F
:100F700080E090E00E94E60161E086E00E94E800E7
:100F800068EE73E080E090E00E94E60160E086E0B9
:100F90000E94E80068EE73E080E090E00E94E601C5
:100FA00061E086E00E94E80068EE73E080E090E097
:100FB0000E94E60160E086E00E94E80068EE73E0CF
:100FC00080E090E00E94E60161E086E00E94E80097
:100FD00068EE73E080E090E00E94E60160E086E069
:100FE0000E94E80083E6F82E80E10E949E00EC015A
:100FF000909335018093340181E10E949E0090938B
:10100000330180933201C80FD91FCD2B61F4809139
:101010000B0190910C018130910509F065C090930E
:101020003301809332010091340110913501C09158
:101030003201D0913301C8018C0F9D1F90930C0198
:1010400080930B018EE00E94AF01833792400CF039
:1010500054C08AE19FEF0E94E3028EE79FEF0E9457
:10106000B90264EF71E080E090E00E94E601C01BED
:10107000D10BD0931201C093110180910F01909177
:1010800010018C0F9D1F8536910514F084E690E0C9
:101090008C393FEF930714F48CE99FEF9093100184
:1010A00080930F0180910D0190910E019E01281BEC
:1010B000390B30930E0120930D01FC9E8001FD9EA3
:1010C000100D112417FF21C08AE19FEF801B910BA7
:1010D0000E94E302C8018A519F4F0E94B902D09337
:1010E0000E01C0930D0180CF8F3F980709F09BCF71
:1010F000909335018093340196CF8FE00E94AF0129
:10110000833792400CF4A5CFB2CF0115110551F0F1
:10111000C8018A519F4F0E94E3028AE19FEF801B22
:10112000910BDBCF86EE90E00E94E30286EE90E02A
:06113000D4CFF894FFCFBC
:107800000C94343C0C94513C0C94513C0C94513CE1
:107810000C94513C0C94513C0C94513C0C94513CB4
:107820000C94513C0C94513C0C94513C0C94513CA4
:107830000C94513C0C94513C0C94513C0C94513C94
:107840000C94513C0C94513C0C94513C0C94513C84
:107850000C94513C0C94513C0C94513C0C94513C74
:107860000C94513C0C94513C11241FBECFEFD8E036
:10787000DEBFCDBF11E0A0E0B1E0ECE9FFE702C060
:1078800005900D92A230B107D9F712E0A2E0B1E065
:1078900001C01D92AD30B107E1F70E942D3D0C945F
:1078A000CC3F0C94003C982F959595959595959582
:1078B000905D8F708A307CF0282F295A8091C0000B
:1078C00085FFFCCF9093C6008091C00085FFFCCF60
:1078D0002093C6000895282F205DF0CF982F809127
:1078E000C00085FFFCCF9093C6000895EF92FF92F1
:1078F0000F931F93EE24FF2487018091C00087FD22
:1079000017C00894E11CF11C011D111D81E4E8164B
:1079100082E4F8068FE0080780E0180770F3E09132
:107920000401F091050109958091C00087FFE9CF1E
:107930008091C6001F910F91FF90EF9008950E94D3
:10794000763C982F8091C00085FFFCCF9093C600B5
:1079500091362CF490330CF09053892F089597555D
:10796000892F08951F930E949F3C182F0E949F3CCF
:107970001295107F810F1F9108951F93182F882350
:1079800021F00E94763C1150E1F71F9108951F935A
:10799000182F0E94763C803249F0809103018F5F5E
:1079A000809303018530C1F01F9108958091C0003C
:1079B00085FFFCCF84E18093C6008091C00085FFE5
:1079C000FCCF1093C6008091C00085FFFCCF80E102
:1079D0008093C6001F910895E0910401F091050184
:1079E00009951F9108950E94763C803241F0809164
:1079F00003018F5F80930301853081F008958091AA
:107A0000C00085FFFCCF84E18093C6008091C00058
:107A100085FFFCCF80E18093C6000895E0910401CA
:107A2000F09105010995089540E951E08823A1F0FE
:107A30002D9A28EE33E0FA013197F1F721503040CA
:107A4000D1F72D9828EE33E0FA013197F1F7215064
:107A50003040D1F7815061F708953F924F925F9285
:107A60006F927F928F929F92AF92BF92CF92DF924E
:107A7000EF92FF920F931F93CF93DF93000080E16B
:107A80008093C4001092C50088E18093C10086E015
:107A90008093C2005098589A259A81E00E94143D24
:107AA00024E1F22E9EE1E92E85E9D82E0FE0C02ECA
:107AB00010E1B12EAA24A394B1E49B2EA6E58A2E50
:107AC000F2E57F2EE0E26E2E79E4572E63E5462E36
:107AD00050E5352E0E94763C8033B1F18133B9F107
:107AE000803409F46FC0813409F476C0823409F41B
:107AF00085C0853409F488C0803531F1823521F1A3
:107B0000813511F1853509F485C0863509F48DC0BC
:107B1000843609F496C0843709F403C1853709F423
:107B200072C1863709F466C0809103018F5F80932C
:107B30000301853079F6E0910401F0910501099582
:107B40000E94763C803351F60E94F33CC3CF0E94E2
:107B5000763C803249F78091C00085FFFCCFF092DF
:107B6000C6008091C00085FFFCCF9092C600809136
:107B7000C00085FFFCCF8092C6008091C00085FFC9
:107B8000FCCF7092C6008091C00085FFFCCF609250
:107B9000C6008091C00085FFFCCF5092C600809146
:107BA000C00085FFFCCF4092C6008091C00085FFD9
:107BB000FCCF3092C6008091C00085FFFCCFB09210
:107BC000C60088CF0E94763C863808F4BDCF0E945C
:107BD000763C0E94F33C7ECF0E94763C803809F4CC
:107BE0009CC0813809F40BC1823809F43CC1883942
:107BF00009F48FC080E00E94C73C6CCF84E10E94F2
:107C0000BD3C0E94F33C66CF85E00E94BD3C0E94D3
:107C1000F33C60CF0E94763C809306010E94763C44
:107C2000809307010E94F33C55CF0E94763C80333D
:107C300009F41DC183E00E94BD3C80E00E94C73C66
:107C400049CF0E94763C809309020E94763C809343
:107C5000080280910C028E7F80930C020E94763C79
:107C6000853409F415C18091080290910902892B8D
:107C700089F000E010E00E94763CF801E85FFE4FDA
:107C800080830F5F1F4F80910802909109020817AF
:107C9000190788F30E94763C803209F045CF809125
:107CA0000C0280FF01C16091060170910701660F0F
:107CB000771F7093070160930601A0910802B091AD
:107CC00009021097C9F0E8E0F1E09B01AD014E0F09
:107CD0005F1FF999FECF32BD21BD819180BDFA9A17
:107CE000F99A2F5F3F4FE417F50799F76A0F7B1F4B
:107CF00070930701609306018091C00085FFFCCF5F
:107D0000F092C6008091C00085FFFCCFB092C60003
:107D1000E1CE83E00E94C73CDDCE82E00E94C73CFA
:107D2000D9CE0E94763C809309020E94763C8093D3
:107D300008028091060190910701880F991F909386
:107D40000701809306010E94763C853409F4A6C0A1
:107D500080910C028E7F80930C020E94763C8032D0
:107D600009F0B8CE8091C00085FFFCCFF092C6002C
:107D7000609108027091090261157105B9F140E046
:107D800050E080910C02A82FA170B82FB27011C0E2
:107D9000BB2309F45CC0E0910601F0910701319624
:107DA000F0930701E09306014F5F5F4F46175707B7
:107DB000E8F4AA2369F3F999FECF209106013091E6
:107DC000070132BD21BDF89A90B58091C00085FFB2
:107DD000FCCF9093C6002F5F3F4F30930701209355
:107DE00006014F5F5F4F4617570718F38091C00099
:107DF00085FDE5CE8091C00085FFF8CFE0CE81E023
:107E00000E94C73C67CE0E94763C803209F08CCE3F
:107E10008091C00085FFFCCFF092C6008091C00029
:107E200085FFFCCFE092C6008091C00085FFFCCFAB
:107E3000D092C6008091C00085FFFCCFC092C600E2
:107E40008091C00085FFFCCFB092C60043CEE09188
:107E50000601F091070194918091C00085FFFCCF4D
:107E60009093C6009CCF80E10E94C73C33CE0E9415
:107E7000763C0E94763C182F0E94763C112309F430
:107E800083C0113009F484C08FE00E94C73C22CE29
:107E900080910C02816080930C02E5CE80910C02EF
:107EA000816080930C0259CF809107018823880F4D
:107EB000880B8A2180930B02809106019091070123
:107EC000880F991F90930701809306018091080203
:107ED00080FF09C080910802909109020196909359
:107EE000090280930802F894F999FECF1127E091D6
:107EF0000601F0910701C8E0D1E08091080290915D
:107F00000902103091F40091570001700130D9F34B
:107F100003E000935700E89500915700017001308D
:107F2000D9F301E100935700E89509901990009169
:107F3000570001700130D9F301E000935700E89534
:107F40001395103498F011270091570001700130FB
:107F5000D9F305E000935700E895009157000170B0
:107F60000130D9F301E100935700E895329602976A
:107F700009F0C7CF103011F00296E5CF112480919F
:107F8000C00085FFB9CEBCCE8EE10E94C73CA2CD19
:0E7F900085E90E94C73C9ECDF894FFCF80008B
:00000001FF
