:020000040000FA
:100000000C9461000C9473000C9473000C947300B6
:100010000C9473000C9473000C9473000C94730094
:100020000C9473000C9473000C9473000C94730084
:100030000C9473000C9473000C9473000C94730074
:100040000C943D040C9473000C9473000C94730096
:100050000C9473000C9473000C9473000C94730054
:100060000C9473000C94730000000000240027001F
:100070002A0000000000250028002B0000000000DE
:1000800023002600290004040404040404040202DA
:100090000202020203030303030301020408102007
:1000A0004080010204081020010204081020000012
:1000B0000008000201000003040700000000000027
:1000C000000011241FBECFEFD8E0DEBFCDBF21E07E
:1000D000A0E0B1E001C01D92AC32B207E1F70E948E
:1000E00087040C9449070C940000833081F028F4B5
:1000F000813099F08230A9F008958730A9F08830D6
:10010000C9F08430B1F4809180008F7D03C080916C
:1001100080008F7780938000089584B58F7784BDA9
:10012000089584B58F7DFBCF8091B0008F77809349
:10013000B00008958091B0008F7DF9CFCF93DF9309
:10014000282F30E0F901E255FF4F8491F901E6567E
:10015000FF4FD491F901EA57FF4FC491CC23A1F08E
:1001600081110E947500EC2FF0E0EE0FFF1FE458A4
:10017000FF4FA591B491EC91ED2381E090E009F45B
:1001800080E0DF91CF91089580E090E0FACF81E0A8
:100190002091280130912901232B99F480E10E94BC
:1001A0009E0021E0892B09F420E020932B0181E1BE
:1001B0000E949E0021E0892B09F420E020932A016F
:1001C00080E021EE30E03093290120932801811155
:1001D000E5CF81E090E008951F93CF93DF93282F20
:1001E00030E0F901E255FF4F8491F901E656FF4FE7
:1001F000D491F901EA57FF4FC491CC23A9F0162FEF
:1002000081110E947500EC2FF0E0EE0FFF1FEE58F9
:10021000FF4FA591B4918FB7F894EC91111108C0DC
:10022000D095DE23DC938FBFDF91CF911F9108958E
:10023000DE2BF8CFCF93DF9390E0FC01E656FF4F23
:1002400024918A579F4FFC0184918823C9F090E044
:10025000880F991FFC01E859FF4FA591B491FC014B
:10026000EE58FF4FC591D49161110DC09FB7F8941E
:100270008C91209582238C938881282328839FBF8B
:10028000DF91CF910895623051F49FB7F8943C917B
:10029000822F809583238C93E8812E2BEFCF8FB70D
:1002A000F894EC912E2B2C938FBFEACF1F93CF9312
:1002B000DF93182FEB0161E00E941A01209739F4B7
:1002C00060E0812FDF91CF911F910C94EC00E12F22
:1002D000F0E0E255FF4FE491E33039F148F4E130CA
:1002E000B9F0E230E9F0C038D10554F361E0E9CF6C
:1002F000E73029F1E83059F1E430A9F78091800026
:10030000806280938000D0938B00C0938A0004C0E9
:1003100084B5806884BDC7BDDF91CF911F910895DA
:1003200084B5806284BDC8BDF7CF809180008068AD
:1003300080938000D0938900C0938800EDCF809196
:10034000B00080688093B000C093B300E5CF809187
:10035000B00080628093B000C093B400DDCF8E50B7
:10036000806480937C0080917A00806480937A001E
:1003700080917A0086FDFCCF809178009091790081
:1003800008953FB7F8948091050190910601A091DE
:100390000701B091080126B5A89B05C02F3F19F0B1
:1003A0000196A11DB11D3FBFBA2FA92F982F8827F5
:1003B000BC01CD01620F711D811D911D42E0660FD0
:1003C000771F881F991F4A95D1F708958F929F92A2
:1003D000AF92BF92CF92DF92EF92FF924B015C01FE
:1003E0000E94C1016B017C010E94C1016C197D0951
:1003F0008E099F09683E734081059105A8F321E0AD
:10040000821A9108A108B10888EEC80E83E0D81EB0
:10041000E11CF11C81149104A104B10429F7FF909F
:10042000EF90DF90CF90BF90AF909F908F90089506
:100430002FB7F8946091010170910201809103013E
:10044000909104012FBF089566277727681B790BC9
:1004500083E00E94560161E085E00E94EC0060E0CC
:1004600084E00C94EC0066277727681B790B89E001
:100470000E94560161E087E00E94EC0060E088E0A5
:100480000C94EC000F931F9380910B0190910C0141
:10049000892B91F488E39FEF0E94330280EB9FEF5A
:1004A0000E9424020E94180260930D0170930E01B5
:1004B00080930F01909310018CE592E090930C01D2
:1004C00080930B010E94180200910D0110910E0102
:1004D00020910F0130911001601B710B820B930B67
:1004E000653F71408105910548F010920C01109212
:1004F0000B0183E090E01F910F91089590E080E060
:10050000FACF80E10E949E0021E0892B09F420E0CF
:1005100020932B0181E10E949E0021E0892B09F4A8
:1005200020E020932A010895CF93DF938DE00E946D
:100530009E0031E020E0019709F030E0C32FD22F78
:100540008CE00E949E00019709F4C2608BE00E943B
:100550009E00019709F4C4608AE00E949E00019702
:1005600009F4C860CE01DF91CF9108950F931F93D6
:10057000E0911B01F0911C01309709F00994109251
:1005800025010E949402039779F50E941802609356
:1005900021017093220180932301909324018FEC19
:1005A00092E090931C0180931B010E94180200911D
:1005B0002101109122012091230130912401601B1F
:1005C000710B820B930B693B7B408105910578F1A0
:1005D00081E08093250110921C0110921B0183E0A1
:1005E00090E01F910F9108950E94180260931D01E1
:1005F00070931E0180931F01909320018EEF92E073
:1006000090931C0180931B010E94180200911D0110
:1006100010911E0120911F0130912001601B710B70
:10062000820B930B6D3D75408105910588F690E036
:1006300080E0D7CF009741F460E085E00E94EC00B5
:1006400060E084E00C94EC00BC0183E00E94560161
:1006500060E085E00E94EC0061E0F3CF009741F498
:1006600060E087E00E94EC0060E088E00C94EC0021
:10067000BC0189E00E94560160E087E00E94EC0026
:1006800061E0F3CF81E02091260130912701232BF7
:1006900089F480912A0190912B01911116C0882331
:1006A000F9F08AE090E00E942E038AE69FEF0E9414
:1006B000240280E02AE533E03093270120932601CD
:1006C0008111E7CF81E090E00895811109C08AE6A9
:1006D0009FEF0E9433028AE090E00E941A03E9CF64
:1006E00090E080E00E942E0390E080E0F6CFCF9370
:1006F000C1E08091190190911A01892BE9F4809150
:100700002A0190912B01992361F0882309F186EE4B
:1007100090E00E942E0386EE90E00E941A03C0E053
:100720000BC0C0E0882341F088EC90E00E942E03CB
:1007300086E490E00E941A038CE993E090931A01FA
:1007400080931901C111DBCF81E090E0CF91089532
:1007500086E490E00E942E0388EC90E0DECF81E0FA
:100760002091170130911801232B61F480912A0107
:1007700090912B01992389F08823D1F081E0809317
:10078000250180E022EC33E030931801209317011B
:100790008111ECCF81E090E00895882381F086E913
:1007A00090E00E942E0388E290E00E941A03E9CFB5
:1007B00088E290E00E942E0386E990E0F6CF109246
:1007C0002501DFCF0F931F93E0911101F0911201EA
:1007D000309709F009948EE00E949E00019781F500
:1007E00084E690E00E942E0384E690E00E941A03C3
:1007F0000E941802609313017093140180931501F5
:100800009093160182E094E090931201809311017D
:100810000E941802009113011091140120911501FA
:1008200030911601601B710B820B930B6139714083
:100830008105910590F490E080E01F910F9108955B
:100840008FE00E949E00019759F28EE00E949E0068
:10085000019719F08FE00E949E00109212011092F1
:10086000110183E090E0E9CF84E394E090931201DA
:10087000809311010E941802D9CF1F920F920FB6D8
:100880000F9211242F933F938F939F93AF93BF9316
:100890008091010190910201A0910301B0910401A6
:1008A0003091000123E0230F2D3758F50196A11D4B
:1008B000B11D209300018093010190930201A09348
:1008C0000301B09304018091050190910601A0916C
:1008D0000701B09108010196A11DB11D809305018A
:1008E00090930601A0930701B0930801BF91AF91C7
:1008F0009F918F913F912F910F900FBE0F901F905E
:10090000189526E8230F0296A11DB11DD2CF789429
:1009100084B5826084BD84B5816084BD85B5826004
:1009200085BD85B5816085BD80916E0081608093B5
:100930006E0010928100809181008260809381001E
:10094000809181008160809381008091800081602E
:10095000809380008091B10084608093B100809189
:10096000B00081608093B00080917A0084608093B1
:100970007A0080917A00826080937A0080917A0078
:10098000816080937A0080917A00806880937A00F9
:100990001092C10061E086E00E941A0161E083E0EC
:1009A0000E941A0161E085E00E941A0161E084E082
:1009B0000E941A0161E089E00E941A0161E087E06B
:1009C0000E941A0161E088E00E941A0162E08AE058
:1009D0000E941A0162E08BE00E941A0162E08CE042
:1009E0000E941A0162E08DE00E941A0160E08EE030
:1009F0000E941A0160E08FE00E941A0160E081E12C
:100A00000E941A0160E080E10E941A0160E082E029
:100A10000E941A0160E086E00E94EC0090E080E015
:100A20000E942E0390E080E00E941A031092290198
:100A3000109228011092270110922601109218019D
:100A40001092170110921C0110921B0110921A01B2
:100A50001092190110921201109211010E94940239
:100A6000019709F08CC061E086E00E94EC0068EE1E
:100A700073E080E090E00E94E60160E086E00E9482
:100A8000EC0082E00E949E000197D9F7CBE2D2E011
:100A90000E94810280912B01811116C086E990E0AD
:100AA0000E942E0386E990E00E941A0382E00E94D1
:100AB0009E00892B69F790E080E00E942E0390E071
:100AC00080E00E941A03FFCF80912A01882331F32E
:100AD0000E94810290912B0180912A01992309F4AF
:100AE000CAC1882341F086EE90E00E942E0386EE74
:100AF00090E00E941A0380912A01811134C08091F4
:100B00002B01882381F186E990E00E942E0388EC76
:100B100090E00E941A0390E080E00E942E0384EB94
:100B200090E00E941A0368EC70E080E090E00E9480
:100B3000E601D0930A01C09309018EE00E94AF0143
:100B400083379240ACF48CE99FEF0E9433028CE92A
:100B50009FEF0E94240260E971E080E090E00E9433
:100B6000E6010E94810280912B018111B1CFACCFAF
:100B70008FE00E94AF01833792402CF3F2CF0E94A6
:100B800094020297A1F561E086E00E94EC0068EE15
:100B900073E080E090E00E94E60160E086E00E9461
:100BA000EC0068EE73E080E090E00E94E60161E016
:100BB00086E00E94EC0068EE73E080E090E00E9426
:100BC000E60160E086E00E94EC000E94C700809190
:100BD0002501811105C00E9442030E94B602F5CF93
:100BE0000E9442020E94E20310922501EECF0E9471
:100BF000940261E0039709F07EC086E00E94EC0059
:100C000068EE73E080E090E00E94E60160E086E03C
:100C10000E94EC0068EE73E080E090E00E94E60144
:100C200061E086E00E94EC0068EE73E080E090E016
:100C30000E94E60160E086E00E94EC0068EE73E04E
:100C400080E090E00E94E60161E086E00E94EC0016
:100C500068EE73E080E090E00E94E60160E086E0EC
:100C60000E94EC0082E00E949E000197D9F70E944A
:100C7000C70080912501811134C00E9442030E9467
:100C8000B6028EE00E94AF01833792406CF58AE68F
:100C90009FEF0E9433028AE69FEF0E94240268E5DC
:100CA00072E080E090E00E94E6018CE99FEF0E94F4
:100CB000330286EF9FEF0E94240260E971E080E03A
:100CC00090E00E94E60182E00E949E00892B79F666
:100CD00090E080E00E942E0390E080E00E941A03E2
:100CE000FFCF0E947703CDCF8FE00E94AF01833703
:100CF00092406CF2E8CF86E00E94EC0068EE73E070
:100D000080E090E00E94E60160E086E00E94EC0056
:100D100068EE73E080E090E00E94E60161E086E02A
:100D20000E94EC0068EE73E080E090E00E94E60133
:100D300060E086E00E94EC0068EE73E080E090E006
:100D40000E94E60161E086E00E94EC0068EE73E03C
:100D500080E090E00E94E60160E086E00E94EC0006
:100D600068EE73E080E090E00E94E60161E086E0DA
:100D70000E94EC0068EE73E080E090E00E94E601E3
:100D800060E086E00E94EC0082E00E949E000197F5
:100D9000D9F70E94C70080912501811140C086E4E7
:100DA00090E00E942E038AEA90E00E941A030E94BB
:100DB000AF030E94B6028EE00E949E00019791F55B
:100DC0008FE00E949E00019769F58AE69FEF0E94DE
:100DD00033028AE69FEF0E94240268E572E080E019
:100DE00090E00E94E6018CE99FEF0E94330286EFBB
:100DF0009FEF0E94240260E971E080E090E00E9491
:100E0000E60182E00E949E00892B19F690E080E0C6
:100E10000E942E0390E080E00E941A03FFCF0E9400
:100E20007703C9CF8EE00E94AF01833792409CF0D8
:100E30008FE00E94AF01823792406CF48EE00E94F6
:100E4000AF018237924084F084E690E00E942E0346
:100E50008CE99FEFCECF8CE99FEF0E94330284E6AE
:100E600090E00E941A03C7CF8FE00E94AF01833742
:100E7000924054F3C6CF882309F43DCE88EC90E02D
:100E80000E942E0386E990E00E941A030E948102CC
:060E900032CEF894FFCF02
:107800000C94343C0C94513C0C94513C0C94513CE1
:107810000C94513C0C94513C0C94513C0C94513CB4
:107820000C94513C0C94513C0C94513C0C94513CA4
:107830000C94513C0C94513C0C94513C0C94513C94
:107840000C94513C0C94513C0C94513C0C94513C84
:107850000C94513C0C94513C0C94513C0C94513C74
:107860000C94513C0C94513C11241FBECFEFD8E036
:10787000DEBFCDBF11E0A0E0B1E0ECE9FFE702C060
:1078800005900D92A230B107D9F712E0A2E0B1E065
:1078900001C01D92AD30B107E1F70E942D3D0C945F
:1078A000CC3F0C94003C982F959595959595959582
:1078B000905D8F708A307CF0282F295A8091C0000B
:1078C00085FFFCCF9093C6008091C00085FFFCCF60
:1078D0002093C6000895282F205DF0CF982F809127
:1078E000C00085FFFCCF9093C6000895EF92FF92F1
:1078F0000F931F93EE24FF2487018091C00087FD22
:1079000017C00894E11CF11C011D111D81E4E8164B
:1079100082E4F8068FE0080780E0180770F3E09132
:107920000401F091050109958091C00087FFE9CF1E
:107930008091C6001F910F91FF90EF9008950E94D3
:10794000763C982F8091C00085FFFCCF9093C600B5
:1079500091362CF490330CF09053892F089597555D
:10796000892F08951F930E949F3C182F0E949F3CCF
:107970001295107F810F1F9108951F93182F882350
:1079800021F00E94763C1150E1F71F9108951F935A
:10799000182F0E94763C803249F0809103018F5F5E
:1079A000809303018530C1F01F9108958091C0003C
:1079B00085FFFCCF84E18093C6008091C00085FFE5
:1079C000FCCF1093C6008091C00085FFFCCF80E102
:1079D0008093C6001F910895E0910401F091050184
:1079E00009951F9108950E94763C803241F0809164
:1079F00003018F5F80930301853081F008958091AA
:107A0000C00085FFFCCF84E18093C6008091C00058
:107A100085FFFCCF80E18093C6000895E0910401CA
:107A2000F09105010995089540E951E08823A1F0FE
:107A30002D9A28EE33E0FA013197F1F721503040CA
:107A4000D1F72D9828EE33E0FA013197F1F7215064
:107A50003040D1F7815061F708953F924F925F9285
:107A60006F927F928F929F92AF92BF92CF92DF924E
:107A7000EF92FF920F931F93CF93DF93000080E16B
:107A80008093C4001092C50088E18093C10086E015
:107A90008093C2005098589A259A81E00E94143D24
:107AA00024E1F22E9EE1E92E85E9D82E0FE0C02ECA
:107AB00010E1B12EAA24A394B1E49B2EA6E58A2E50
:107AC000F2E57F2EE0E26E2E79E4572E63E5462E36
:107AD00050E5352E0E94763C8033B1F18133B9F107
:107AE000803409F46FC0813409F476C0823409F41B
:107AF00085C0853409F488C0803531F1823521F1A3
:107B0000813511F1853509F485C0863509F48DC0BC
:107B1000843609F496C0843709F403C1853709F423
:107B200072C1863709F466C0809103018F5F80932C
:107B30000301853079F6E0910401F0910501099582
:107B40000E94763C803351F60E94F33CC3CF0E94E2
:107B5000763C803249F78091C00085FFFCCFF092DF
:107B6000C6008091C00085FFFCCF9092C600809136
:107B7000C00085FFFCCF8092C6008091C00085FFC9
:107B8000FCCF7092C6008091C00085FFFCCF609250
:107B9000C6008091C00085FFFCCF5092C600809146
:107BA000C00085FFFCCF4092C6008091C00085FFD9
:107BB000FCCF3092C6008091C00085FFFCCFB09210
:107BC000C60088CF0E94763C863808F4BDCF0E945C
:107BD000763C0E94F33C7ECF0E94763C803809F4CC
:107BE0009CC0813809F40BC1823809F43CC1883942
:107BF00009F48FC080E00E94C73C6CCF84E10E94F2
:107C0000BD3C0E94F33C66CF85E00E94BD3C0E94D3
:107C1000F33C60CF0E94763C809306010E94763C44
:107C2000809307010E94F33C55CF0E94763C80333D
:107C300009F41DC183E00E94BD3C80E00E94C73C66
:107C400049CF0E94763C809309020E94763C809343
:107C5000080280910C028E7F80930C020E94763C79
:107C6000853409F415C18091080290910902892B8D
:107C700089F000E010E00E94763CF801E85FFE4FDA
:107C800080830F5F1F4F80910802909109020817AF
:107C9000190788F30E94763C803209F045CF809125
:107CA0000C0280FF01C16091060170910701660F0F
:107CB000771F7093070160930601A0910802B091AD
:107CC00009021097C9F0E8E0F1E09B01AD014E0F09
:107CD0005F1FF999FECF32BD21BD819180BDFA9A17
:107CE000F99A2F5F3F4FE417F50799F76A0F7B1F4B
:107CF00070930701609306018091C00085FFFCCF5F
:107D0000F092C6008091C00085FFFCCFB092C60003
:107D1000E1CE83E00E94C73CDDCE82E00E94C73CFA
:107D2000D9CE0E94763C809309020E94763C8093D3
:107D300008028091060190910701880F991F909386
:107D40000701809306010E94763C853409F4A6C0A1
:107D500080910C028E7F80930C020E94763C8032D0
:107D600009F0B8CE8091C00085FFFCCFF092C6002C
:107D7000609108027091090261157105B9F140E046
:107D800050E080910C02A82FA170B82FB27011C0E2
:107D9000BB2309F45CC0E0910601F0910701319624
:107DA000F0930701E09306014F5F5F4F46175707B7
:107DB000E8F4AA2369F3F999FECF209106013091E6
:107DC000070132BD21BDF89A90B58091C00085FFB2
:107DD000FCCF9093C6002F5F3F4F30930701209355
:107DE00006014F5F5F4F4617570718F38091C00099
:107DF00085FDE5CE8091C00085FFF8CFE0CE81E023
:107E00000E94C73C67CE0E94763C803209F08CCE3F
:107E10008091C00085FFFCCFF092C6008091C00029
:107E200085FFFCCFE092C6008091C00085FFFCCFAB
:107E3000D092C6008091C00085FFFCCFC092C600E2
:107E40008091C00085FFFCCFB092C60043CEE09188
:107E50000601F091070194918091C00085FFFCCF4D
:107E60009093C6009CCF80E10E94C73C33CE0E9415
:107E7000763C0E94763C182F0E94763C112309F430
:107E800083C0113009F484C08FE00E94C73C22CE29
:107E900080910C02816080930C02E5CE80910C02EF
:107EA000816080930C0259CF809107018823880F4D
:107EB000880B8A2180930B02809106019091070123
:107EC000880F991F90930701809306018091080203
:107ED00080FF09C080910802909109020196909359
:107EE000090280930802F894F999FECF1127E091D6
:107EF0000601F0910701C8E0D1E08091080290915D
:107F00000902103091F40091570001700130D9F34B
:107F100003E000935700E89500915700017001308D
:107F2000D9F301E100935700E89509901990009169
:107F3000570001700130D9F301E000935700E89534
:107F40001395103498F011270091570001700130FB
:107F5000D9F305E000935700E895009157000170B0
:107F60000130D9F301E100935700E895329602976A
:107F700009F0C7CF103011F00296E5CF112480919F
:107F8000C00085FFB9CEBCCE8EE10E94C73CA2CD19
:0E7F900085E90E94C73C9ECDF894FFCF80008B
:00000001FF
